{
  "contractName": "Market",
  "abi": [
    {
      "inputs": [
        {
          "internalType": "contract IMilkToken",
          "name": "_tokenMilk",
          "type": "address"
        },
        {
          "internalType": "address",
          "name": "_ownerAddr",
          "type": "address"
        }
      ],
      "stateMutability": "nonpayable",
      "type": "constructor"
    },
    {
      "anonymous": false,
      "inputs": [
        {
          "indexed": true,
          "internalType": "uint256",
          "name": "itemId",
          "type": "uint256"
        },
        {
          "indexed": true,
          "internalType": "address",
          "name": "nftContract",
          "type": "address"
        },
        {
          "indexed": true,
          "internalType": "uint256",
          "name": "tokenId",
          "type": "uint256"
        },
        {
          "indexed": false,
          "internalType": "address",
          "name": "seller",
          "type": "address"
        },
        {
          "indexed": false,
          "internalType": "address",
          "name": "owner",
          "type": "address"
        },
        {
          "indexed": false,
          "internalType": "uint256",
          "name": "price",
          "type": "uint256"
        },
        {
          "indexed": false,
          "internalType": "uint256",
          "name": "listedTime",
          "type": "uint256"
        },
        {
          "indexed": false,
          "internalType": "bool",
          "name": "isSold",
          "type": "bool"
        }
      ],
      "name": "MarketItemCreated",
      "type": "event"
    },
    {
      "anonymous": false,
      "inputs": [
        {
          "indexed": true,
          "internalType": "address",
          "name": "previousOwner",
          "type": "address"
        },
        {
          "indexed": true,
          "internalType": "address",
          "name": "newOwner",
          "type": "address"
        }
      ],
      "name": "OwnershipTransferred",
      "type": "event"
    },
    {
      "inputs": [],
      "name": "feePercent",
      "outputs": [
        {
          "internalType": "uint8",
          "name": "",
          "type": "uint8"
        }
      ],
      "stateMutability": "view",
      "type": "function",
      "constant": true
    },
    {
      "inputs": [],
      "name": "owner",
      "outputs": [
        {
          "internalType": "address",
          "name": "",
          "type": "address"
        }
      ],
      "stateMutability": "view",
      "type": "function",
      "constant": true
    },
    {
      "inputs": [],
      "name": "renounceOwnership",
      "outputs": [],
      "stateMutability": "nonpayable",
      "type": "function"
    },
    {
      "inputs": [
        {
          "internalType": "address",
          "name": "newOwner",
          "type": "address"
        }
      ],
      "name": "transferOwnership",
      "outputs": [],
      "stateMutability": "nonpayable",
      "type": "function"
    },
    {
      "inputs": [
        {
          "internalType": "uint8",
          "name": "_feePercent",
          "type": "uint8"
        }
      ],
      "name": "setFeePercent",
      "outputs": [],
      "stateMutability": "nonpayable",
      "type": "function"
    },
    {
      "inputs": [
        {
          "internalType": "address",
          "name": "_ownerAddr",
          "type": "address"
        }
      ],
      "name": "setOwnerAddr",
      "outputs": [],
      "stateMutability": "nonpayable",
      "type": "function"
    },
    {
      "inputs": [],
      "name": "getOwnerAddr",
      "outputs": [
        {
          "internalType": "address",
          "name": "",
          "type": "address"
        }
      ],
      "stateMutability": "view",
      "type": "function",
      "constant": true
    },
    {
      "inputs": [
        {
          "internalType": "address",
          "name": "nftContract",
          "type": "address"
        },
        {
          "internalType": "uint256",
          "name": "tokenId",
          "type": "uint256"
        },
        {
          "internalType": "uint256",
          "name": "price",
          "type": "uint256"
        }
      ],
      "name": "createMarketItem",
      "outputs": [],
      "stateMutability": "nonpayable",
      "type": "function"
    },
    {
      "inputs": [
        {
          "internalType": "address",
          "name": "nftContract",
          "type": "address"
        },
        {
          "internalType": "uint256",
          "name": "itemId",
          "type": "uint256"
        }
      ],
      "name": "unlistMarketItem",
      "outputs": [],
      "stateMutability": "nonpayable",
      "type": "function"
    },
    {
      "inputs": [
        {
          "internalType": "address",
          "name": "nftContract",
          "type": "address"
        },
        {
          "internalType": "uint256",
          "name": "itemId",
          "type": "uint256"
        }
      ],
      "name": "createMarketSale",
      "outputs": [],
      "stateMutability": "nonpayable",
      "type": "function"
    },
    {
      "inputs": [],
      "name": "fetchMarketItems",
      "outputs": [
        {
          "components": [
            {
              "internalType": "uint256",
              "name": "itemId",
              "type": "uint256"
            },
            {
              "internalType": "address",
              "name": "nftContract",
              "type": "address"
            },
            {
              "internalType": "uint256",
              "name": "tokenId",
              "type": "uint256"
            },
            {
              "internalType": "address",
              "name": "seller",
              "type": "address"
            },
            {
              "internalType": "address",
              "name": "buyer",
              "type": "address"
            },
            {
              "internalType": "uint256",
              "name": "price",
              "type": "uint256"
            },
            {
              "internalType": "uint256",
              "name": "listedTime",
              "type": "uint256"
            },
            {
              "internalType": "bool",
              "name": "isSold",
              "type": "bool"
            }
          ],
          "internalType": "struct Market.MarketItem[]",
          "name": "",
          "type": "tuple[]"
        }
      ],
      "stateMutability": "view",
      "type": "function",
      "constant": true
    },
    {
      "inputs": [],
      "name": "fetchMyNFTs",
      "outputs": [
        {
          "components": [
            {
              "internalType": "uint256",
              "name": "itemId",
              "type": "uint256"
            },
            {
              "internalType": "address",
              "name": "nftContract",
              "type": "address"
            },
            {
              "internalType": "uint256",
              "name": "tokenId",
              "type": "uint256"
            },
            {
              "internalType": "address",
              "name": "seller",
              "type": "address"
            },
            {
              "internalType": "address",
              "name": "buyer",
              "type": "address"
            },
            {
              "internalType": "uint256",
              "name": "price",
              "type": "uint256"
            },
            {
              "internalType": "uint256",
              "name": "listedTime",
              "type": "uint256"
            },
            {
              "internalType": "bool",
              "name": "isSold",
              "type": "bool"
            }
          ],
          "internalType": "struct Market.MarketItem[]",
          "name": "",
          "type": "tuple[]"
        }
      ],
      "stateMutability": "view",
      "type": "function",
      "constant": true
    },
    {
      "inputs": [],
      "name": "fetchItemsCreated",
      "outputs": [
        {
          "components": [
            {
              "internalType": "uint256",
              "name": "itemId",
              "type": "uint256"
            },
            {
              "internalType": "address",
              "name": "nftContract",
              "type": "address"
            },
            {
              "internalType": "uint256",
              "name": "tokenId",
              "type": "uint256"
            },
            {
              "internalType": "address",
              "name": "seller",
              "type": "address"
            },
            {
              "internalType": "address",
              "name": "buyer",
              "type": "address"
            },
            {
              "internalType": "uint256",
              "name": "price",
              "type": "uint256"
            },
            {
              "internalType": "uint256",
              "name": "listedTime",
              "type": "uint256"
            },
            {
              "internalType": "bool",
              "name": "isSold",
              "type": "bool"
            }
          ],
          "internalType": "struct Market.MarketItem[]",
          "name": "",
          "type": "tuple[]"
        }
      ],
      "stateMutability": "view",
      "type": "function",
      "constant": true
    },
    {
      "inputs": [
        {
          "internalType": "uint256",
          "name": "_marketId",
          "type": "uint256"
        }
      ],
      "name": "fetchSellerOfMarketItem",
      "outputs": [
        {
          "internalType": "address",
          "name": "",
          "type": "address"
        }
      ],
      "stateMutability": "view",
      "type": "function",
      "constant": true
    },
    {
      "inputs": [
        {
          "internalType": "uint256",
          "name": "_marketId",
          "type": "uint256"
        }
      ],
      "name": "fetchPriceOfMarketItem",
      "outputs": [
        {
          "internalType": "uint256",
          "name": "",
          "type": "uint256"
        }
      ],
      "stateMutability": "view",
      "type": "function",
      "constant": true
    },
    {
      "inputs": [
        {
          "internalType": "uint256",
          "name": "_marketId",
          "type": "uint256"
        }
      ],
      "name": "fetchBuyerOfMarketItem",
      "outputs": [
        {
          "internalType": "address",
          "name": "",
          "type": "address"
        }
      ],
      "stateMutability": "view",
      "type": "function",
      "constant": true
    }
  ],
  "bytecode": "0x60806040523480156200001157600080fd5b506040516200312738038062003127833981810160405281019062000037919062000213565b6001600081905550620000716200005c62000117640100000000026401000000009004565b6200011f640100000000026401000000009004565b81600460006101000a81548173ffffffffffffffffffffffffffffffffffffffff021916908373ffffffffffffffffffffffffffffffffffffffff160217905550600a600560146101000a81548160ff021916908360ff16021790555080600560006101000a81548173ffffffffffffffffffffffffffffffffffffffff021916908373ffffffffffffffffffffffffffffffffffffffff1602179055505050620002d0565b600033905090565b6000600160009054906101000a900473ffffffffffffffffffffffffffffffffffffffff16905081600160006101000a81548173ffffffffffffffffffffffffffffffffffffffff021916908373ffffffffffffffffffffffffffffffffffffffff1602179055508173ffffffffffffffffffffffffffffffffffffffff168173ffffffffffffffffffffffffffffffffffffffff167f8be0079c531659141344cd1fd0a4f28419497f9722a3daafe3b4186f6b6457e060405160405180910390a35050565b600081519050620001f6816200029c565b92915050565b6000815190506200020d81620002b6565b92915050565b600080604083850312156200022757600080fd5b60006200023785828601620001fc565b92505060206200024a85828601620001e5565b9150509250929050565b600062000261826200027c565b9050919050565b6000620002758262000254565b9050919050565b600073ffffffffffffffffffffffffffffffffffffffff82169050919050565b620002a78162000254565b8114620002b357600080fd5b50565b620002c18162000268565b8114620002cd57600080fd5b50565b612e4780620002e06000396000f3fe608060405234801561001057600080fd5b506004361061011d576000357c010000000000000000000000000000000000000000000000000000000090048063a9e0c316116100b4578063e670472311610083578063e6704723146102a4578063f064c32e146102c2578063f2fde38b146102e0578063f4838176146102fc5761011d565b8063a9e0c31614610220578063c23b139e1461023c578063c919319314610258578063e074278d146102885761011d565b8063715018a6116100f0578063715018a6146101aa5780637fd6f15c146101b45780638da5cb5b146101d257806392198437146101f05761011d565b80630f08efe014610122578063202e37401461014057806358eb2df51461015e578063591b8f611461017a575b600080fd5b61012a610318565b604051610137919061267e565b60405180910390f35b610148610638565b604051610155919061267e565b60405180910390f35b610178600480360381019061017391906121c0565b6109dd565b005b610194600480360381019061018f9190612238565b610d2c565b6040516101a191906125d9565b60405180910390f35b6101b2610dcf565b005b6101bc610e57565b6040516101c9919061283b565b60405180910390f35b6101da610e6a565b6040516101e791906125d9565b60405180910390f35b61020a60048036038101906102059190612238565b610e94565b60405161021791906125d9565b60405180910390f35b61023a60048036038101906102359190612184565b610ed4565b005b61025660048036038101906102519190612184565b6112c8565b005b610272600480360381019061026d9190612238565b6117f4565b60405161027f9190612820565b60405180910390f35b6102a2600480360381019061029d919061215b565b611814565b005b6102ac611944565b6040516102b991906125d9565b60405180910390f35b6102ca6119ea565b6040516102d7919061267e565b60405180910390f35b6102fa60048036038101906102f5919061215b565b611d8f565b005b6103166004803603810190610311919061228a565b611e87565b005b606060006103266002611f77565b905060006103346003611f77565b61033e6002611f77565b6103489190612981565b90506000808267ffffffffffffffff81111561038d577f4e487b7100000000000000000000000000000000000000000000000000000000600052604160045260246000fd5b6040519080825280602002602001820160405280156103c657816020015b6103b3612069565b8152602001906001900390816103ab5790505b50905060005b8481101561062d57600073ffffffffffffffffffffffffffffffffffffffff16600660006001846103fd91906128a0565b815260200190815260200160002060040160009054906101000a900473ffffffffffffffffffffffffffffffffffffffff1673ffffffffffffffffffffffffffffffffffffffff16141561061a57600060018261045a91906128a0565b905060006006600083815260200190815260200160002090508060405180610100016040529081600082015481526020016001820160009054906101000a900473ffffffffffffffffffffffffffffffffffffffff1673ffffffffffffffffffffffffffffffffffffffff1673ffffffffffffffffffffffffffffffffffffffff168152602001600282015481526020016003820160009054906101000a900473ffffffffffffffffffffffffffffffffffffffff1673ffffffffffffffffffffffffffffffffffffffff1673ffffffffffffffffffffffffffffffffffffffff1681526020016004820160009054906101000a900473ffffffffffffffffffffffffffffffffffffffff1673ffffffffffffffffffffffffffffffffffffffff1673ffffffffffffffffffffffffffffffffffffffff16815260200160058201548152602001600682015481526020016007820160009054906101000a900460ff1615151515815250508486815181106105fe577f4e487b7100000000000000000000000000000000000000000000000000000000600052603260045260246000fd5b6020026020010181905250848061061490612a3e565b95505050505b808061062590612a3e565b9150506103cc565b508094505050505090565b606060006106466002611f77565b905060008060005b838110156106ef573373ffffffffffffffffffffffffffffffffffffffff166006600060018461067e91906128a0565b815260200190815260200160002060040160009054906101000a900473ffffffffffffffffffffffffffffffffffffffff1673ffffffffffffffffffffffffffffffffffffffff1614156106dc576001836106d991906128a0565b92505b80806106e790612a3e565b91505061064e565b5060008267ffffffffffffffff811115610732577f4e487b7100000000000000000000000000000000000000000000000000000000600052604160045260246000fd5b60405190808252806020026020018201604052801561076b57816020015b610758612069565b8152602001906001900390816107505790505b50905060005b848110156109d2573373ffffffffffffffffffffffffffffffffffffffff16600660006001846107a191906128a0565b815260200190815260200160002060040160009054906101000a900473ffffffffffffffffffffffffffffffffffffffff1673ffffffffffffffffffffffffffffffffffffffff1614156109bf5760006001826107fe91906128a0565b905060006006600083815260200190815260200160002090508060405180610100016040529081600082015481526020016001820160009054906101000a900473ffffffffffffffffffffffffffffffffffffffff1673ffffffffffffffffffffffffffffffffffffffff1673ffffffffffffffffffffffffffffffffffffffff168152602001600282015481526020016003820160009054906101000a900473ffffffffffffffffffffffffffffffffffffffff1673ffffffffffffffffffffffffffffffffffffffff1673ffffffffffffffffffffffffffffffffffffffff1681526020016004820160009054906101000a900473ffffffffffffffffffffffffffffffffffffffff1673ffffffffffffffffffffffffffffffffffffffff1673ffffffffffffffffffffffffffffffffffffffff16815260200160058201548152602001600682015481526020016007820160009054906101000a900460ff1615151515815250508486815181106109a2577f4e487b7100000000000000000000000000000000000000000000000000000000600052603260045260246000fd5b60200260200101819052506001856109ba91906128a0565b945050505b80806109ca90612a3e565b915050610771565b508094505050505090565b60026000541415610a23576040517f08c379a0000000000000000000000000000000000000000000000000000000008152600401610a1a90612800565b60405180910390fd5b600260008190555060008111610a6e576040517f08c379a0000000000000000000000000000000000000000000000000000000008152600401610a6590612740565b60405180910390fd5b610a786002611f85565b6000610a846002611f77565b90506040518061010001604052808281526020018573ffffffffffffffffffffffffffffffffffffffff1681526020018481526020013373ffffffffffffffffffffffffffffffffffffffff168152602001600073ffffffffffffffffffffffffffffffffffffffff16815260200183815260200142815260200160001515815250600660008381526020019081526020016000206000820151816000015560208201518160010160006101000a81548173ffffffffffffffffffffffffffffffffffffffff021916908373ffffffffffffffffffffffffffffffffffffffff1602179055506040820151816002015560608201518160030160006101000a81548173ffffffffffffffffffffffffffffffffffffffff021916908373ffffffffffffffffffffffffffffffffffffffff16021790555060808201518160040160006101000a81548173ffffffffffffffffffffffffffffffffffffffff021916908373ffffffffffffffffffffffffffffffffffffffff16021790555060a0820151816005015560c0820151816006015560e08201518160070160006101000a81548160ff0219169083151502179055509050508373ffffffffffffffffffffffffffffffffffffffff166323b872dd3330866040518463ffffffff167c0100000000000000000000000000000000000000000000000000000000028152600401610c92939291906125f4565b600060405180830381600087803b158015610cac57600080fd5b505af1158015610cc0573d6000803e3d6000fd5b50505050828473ffffffffffffffffffffffffffffffffffffffff16827fd0bb1eaea8ab6cd0c288f209757734c5e280d8f4e05f93b1db82da8db727875833600087426000604051610d1695949392919061262b565b60405180910390a4506001600081905550505050565b60006006600083815260200190815260200160002060070160009054906101000a900460ff16610d91576040517f08c379a0000000000000000000000000000000000000000000000000000000008152600401610d8890612760565b60405180910390fd5b6006600083815260200190815260200160002060040160009054906101000a900473ffffffffffffffffffffffffffffffffffffffff169050919050565b610dd7611f9b565b73ffffffffffffffffffffffffffffffffffffffff16610df5610e6a565b73ffffffffffffffffffffffffffffffffffffffff1614610e4b576040517f08c379a0000000000000000000000000000000000000000000000000000000008152600401610e4290612780565b60405180910390fd5b610e556000611fa3565b565b600560149054906101000a900460ff1681565b6000600160009054906101000a900473ffffffffffffffffffffffffffffffffffffffff16905090565b60006006600083815260200190815260200160002060030160009054906101000a900473ffffffffffffffffffffffffffffffffffffffff169050919050565b60026000541415610f1a576040517f08c379a0000000000000000000000000000000000000000000000000000000008152600401610f1190612800565b60405180910390fd5b60026000819055506000600660008381526020019081526020016000206002015490506000821415610f81576040517f08c379a0000000000000000000000000000000000000000000000000000000008152600401610f7890612720565b60405180910390fd5b6006600083815260200190815260200160002060030160009054906101000a900473ffffffffffffffffffffffffffffffffffffffff1673ffffffffffffffffffffffffffffffffffffffff163373ffffffffffffffffffffffffffffffffffffffff1614611025576040517f08c379a000000000000000000000000000000000000000000000000000000000815260040161101c90612700565b60405180910390fd5b6006600083815260200190815260200160002060010160009054906101000a900473ffffffffffffffffffffffffffffffffffffffff1673ffffffffffffffffffffffffffffffffffffffff168373ffffffffffffffffffffffffffffffffffffffff16146110c9576040517f08c379a00000000000000000000000000000000000000000000000000000000081526004016110c0906127c0565b60405180910390fd5b600115156006600084815260200190815260200160002060070160009054906101000a900460ff161515141580156111635750600073ffffffffffffffffffffffffffffffffffffffff166006600084815260200190815260200160002060040160009054906101000a900473ffffffffffffffffffffffffffffffffffffffff1673ffffffffffffffffffffffffffffffffffffffff16145b6111a2576040517f08c379a0000000000000000000000000000000000000000000000000000000008152600401611199906127e0565b60405180910390fd5b8273ffffffffffffffffffffffffffffffffffffffff166323b872dd3033846040518463ffffffff167c01000000000000000000000000000000000000000000000000000000000281526004016111fb939291906125f4565b600060405180830381600087803b15801561121557600080fd5b505af1158015611229573d6000803e3d6000fd5b50505050336006600084815260200190815260200160002060040160006101000a81548173ffffffffffffffffffffffffffffffffffffffff021916908373ffffffffffffffffffffffffffffffffffffffff16021790555060016006600084815260200190815260200160002060070160006101000a81548160ff0219169083151502179055506112bb6003611f85565b5060016000819055505050565b6002600054141561130e576040517f08c379a000000000000000000000000000000000000000000000000000000000815260040161130590612800565b60405180910390fd5b600260008190555060006006600083815260200190815260200160002060050154905060006006600084815260200190815260200160002060020154905081600460009054906101000a900473ffffffffffffffffffffffffffffffffffffffff1673ffffffffffffffffffffffffffffffffffffffff166370a08231336040518263ffffffff167c01000000000000000000000000000000000000000000000000000000000281526004016113c491906125d9565b60206040518083038186803b1580156113dc57600080fd5b505afa1580156113f0573d6000803e3d6000fd5b505050506040513d601f19601f820116820180604052508101906114149190612261565b1015611455576040517f08c379a000000000000000000000000000000000000000000000000000000000815260040161144c906126e0565b60405180910390fd5b600460009054906101000a900473ffffffffffffffffffffffffffffffffffffffff1673ffffffffffffffffffffffffffffffffffffffff166323b872dd336006600087815260200190815260200160002060030160009054906101000a900473ffffffffffffffffffffffffffffffffffffffff166064600560149054906101000a900460ff1660646114e991906129b5565b60ff16670de0b6b3a7640000886115009190612927565b61150a9190612927565b61151491906128f6565b6040518463ffffffff167c010000000000000000000000000000000000000000000000000000000002815260040161154e939291906125f4565b602060405180830381600087803b15801561156857600080fd5b505af115801561157c573d6000803e3d6000fd5b505050506040513d601f19601f820116820180604052508101906115a0919061220f565b50600460009054906101000a900473ffffffffffffffffffffffffffffffffffffffff1673ffffffffffffffffffffffffffffffffffffffff166323b872dd33600560009054906101000a900473ffffffffffffffffffffffffffffffffffffffff166064600560149054906101000a900460ff1660ff16670de0b6b3a76400008861162c9190612927565b6116369190612927565b61164091906128f6565b6040518463ffffffff167c010000000000000000000000000000000000000000000000000000000002815260040161167a939291906125f4565b602060405180830381600087803b15801561169457600080fd5b505af11580156116a8573d6000803e3d6000fd5b505050506040513d601f19601f820116820180604052508101906116cc919061220f565b508373ffffffffffffffffffffffffffffffffffffffff166323b872dd3033846040518463ffffffff167c0100000000000000000000000000000000000000000000000000000000028152600401611726939291906125f4565b600060405180830381600087803b15801561174057600080fd5b505af1158015611754573d6000803e3d6000fd5b50505050336006600085815260200190815260200160002060040160006101000a81548173ffffffffffffffffffffffffffffffffffffffff021916908373ffffffffffffffffffffffffffffffffffffffff16021790555060016006600085815260200190815260200160002060070160006101000a81548160ff0219169083151502179055506117e66003611f85565b505060016000819055505050565b600060066000838152602001908152602001600020600501549050919050565b61181c611f9b565b73ffffffffffffffffffffffffffffffffffffffff1661183a610e6a565b73ffffffffffffffffffffffffffffffffffffffff1614611890576040517f08c379a000000000000000000000000000000000000000000000000000000000815260040161188790612780565b60405180910390fd5b600073ffffffffffffffffffffffffffffffffffffffff168173ffffffffffffffffffffffffffffffffffffffff161415611900576040517f08c379a00000000000000000000000000000000000000000000000000000000081526004016118f7906126a0565b60405180910390fd5b80600560006101000a81548173ffffffffffffffffffffffffffffffffffffffff021916908373ffffffffffffffffffffffffffffffffffffffff16021790555050565b600061194e611f9b565b73ffffffffffffffffffffffffffffffffffffffff1661196c610e6a565b73ffffffffffffffffffffffffffffffffffffffff16146119c2576040517f08c379a00000000000000000000000000000000000000000000000000000000081526004016119b990612780565b60405180910390fd5b600560009054906101000a900473ffffffffffffffffffffffffffffffffffffffff16905090565b606060006119f86002611f77565b905060008060005b83811015611aa1573373ffffffffffffffffffffffffffffffffffffffff1660066000600184611a3091906128a0565b815260200190815260200160002060030160009054906101000a900473ffffffffffffffffffffffffffffffffffffffff1673ffffffffffffffffffffffffffffffffffffffff161415611a8e57600183611a8b91906128a0565b92505b8080611a9990612a3e565b915050611a00565b5060008267ffffffffffffffff811115611ae4577f4e487b7100000000000000000000000000000000000000000000000000000000600052604160045260246000fd5b604051908082528060200260200182016040528015611b1d57816020015b611b0a612069565b815260200190600190039081611b025790505b50905060005b84811015611d84573373ffffffffffffffffffffffffffffffffffffffff1660066000600184611b5391906128a0565b815260200190815260200160002060030160009054906101000a900473ffffffffffffffffffffffffffffffffffffffff1673ffffffffffffffffffffffffffffffffffffffff161415611d71576000600182611bb091906128a0565b905060006006600083815260200190815260200160002090508060405180610100016040529081600082015481526020016001820160009054906101000a900473ffffffffffffffffffffffffffffffffffffffff1673ffffffffffffffffffffffffffffffffffffffff1673ffffffffffffffffffffffffffffffffffffffff168152602001600282015481526020016003820160009054906101000a900473ffffffffffffffffffffffffffffffffffffffff1673ffffffffffffffffffffffffffffffffffffffff1673ffffffffffffffffffffffffffffffffffffffff1681526020016004820160009054906101000a900473ffffffffffffffffffffffffffffffffffffffff1673ffffffffffffffffffffffffffffffffffffffff1673ffffffffffffffffffffffffffffffffffffffff16815260200160058201548152602001600682015481526020016007820160009054906101000a900460ff161515151581525050848681518110611d54577f4e487b7100000000000000000000000000000000000000000000000000000000600052603260045260246000fd5b6020026020010181905250600185611d6c91906128a0565b945050505b8080611d7c90612a3e565b915050611b23565b508094505050505090565b611d97611f9b565b73ffffffffffffffffffffffffffffffffffffffff16611db5610e6a565b73ffffffffffffffffffffffffffffffffffffffff1614611e0b576040517f08c379a0000000000000000000000000000000000000000000000000000000008152600401611e0290612780565b60405180910390fd5b600073ffffffffffffffffffffffffffffffffffffffff168173ffffffffffffffffffffffffffffffffffffffff161415611e7b576040517f08c379a0000000000000000000000000000000000000000000000000000000008152600401611e72906126c0565b60405180910390fd5b611e8481611fa3565b50565b611e8f611f9b565b73ffffffffffffffffffffffffffffffffffffffff16611ead610e6a565b73ffffffffffffffffffffffffffffffffffffffff1614611f03576040517f08c379a0000000000000000000000000000000000000000000000000000000008152600401611efa90612780565b60405180910390fd5b601e8160ff1611158015611f1a575060008160ff16115b611f59576040517f08c379a0000000000000000000000000000000000000000000000000000000008152600401611f50906127a0565b60405180910390fd5b80600560146101000a81548160ff021916908360ff16021790555050565b600081600001549050919050565b6001816000016000828254019250508190555050565b600033905090565b6000600160009054906101000a900473ffffffffffffffffffffffffffffffffffffffff16905081600160006101000a81548173ffffffffffffffffffffffffffffffffffffffff021916908373ffffffffffffffffffffffffffffffffffffffff1602179055508173ffffffffffffffffffffffffffffffffffffffff168173ffffffffffffffffffffffffffffffffffffffff167f8be0079c531659141344cd1fd0a4f28419497f9722a3daafe3b4186f6b6457e060405160405180910390a35050565b60405180610100016040528060008152602001600073ffffffffffffffffffffffffffffffffffffffff16815260200160008152602001600073ffffffffffffffffffffffffffffffffffffffff168152602001600073ffffffffffffffffffffffffffffffffffffffff16815260200160008152602001600081526020016000151581525090565b60008135905061210181612db5565b92915050565b60008151905061211681612dcc565b92915050565b60008135905061212b81612de3565b92915050565b60008151905061214081612de3565b92915050565b60008135905061215581612dfa565b92915050565b60006020828403121561216d57600080fd5b600061217b848285016120f2565b91505092915050565b6000806040838503121561219757600080fd5b60006121a5858286016120f2565b92505060206121b68582860161211c565b9150509250929050565b6000806000606084860312156121d557600080fd5b60006121e3868287016120f2565b93505060206121f48682870161211c565b92505060406122058682870161211c565b9150509250925092565b60006020828403121561222157600080fd5b600061222f84828501612107565b91505092915050565b60006020828403121561224a57600080fd5b60006122588482850161211c565b91505092915050565b60006020828403121561227357600080fd5b600061228184828501612131565b91505092915050565b60006020828403121561229c57600080fd5b60006122aa84828501612146565b91505092915050565b60006122bf838361250a565b6101008301905092915050565b6122d5816129e9565b82525050565b6122e4816129e9565b82525050565b60006122f582612866565b6122ff818561287e565b935061230a83612856565b8060005b8381101561233b57815161232288826122b3565b975061232d83612871565b92505060018101905061230e565b5085935050505092915050565b612351816129fb565b82525050565b612360816129fb565b82525050565b600061237360278361288f565b915061237e82612ae5565b604082019050919050565b600061239660268361288f565b91506123a182612b34565b604082019050919050565b60006123b960238361288f565b91506123c482612b83565b604082019050919050565b60006123dc602a8361288f565b91506123e782612bd2565b604082019050919050565b60006123ff601a8361288f565b915061240a82612c21565b602082019050919050565b600061242260138361288f565b915061242d82612c4a565b602082019050919050565b600061244560198361288f565b915061245082612c73565b602082019050919050565b600061246860208361288f565b915061247382612c9c565b602082019050919050565b600061248b60358361288f565b915061249682612cc5565b604082019050919050565b60006124ae60248361288f565b91506124b982612d14565b604082019050919050565b60006124d1601b8361288f565b91506124dc82612d63565b602082019050919050565b60006124f4601f8361288f565b91506124ff82612d8c565b602082019050919050565b6101008201600082015161252160008501826125ac565b50602082015161253460208501826122cc565b50604082015161254760408501826125ac565b50606082015161255a60608501826122cc565b50608082015161256d60808501826122cc565b5060a082015161258060a08501826125ac565b5060c082015161259360c08501826125ac565b5060e08201516125a660e0850182612348565b50505050565b6125b581612a27565b82525050565b6125c481612a27565b82525050565b6125d381612a31565b82525050565b60006020820190506125ee60008301846122db565b92915050565b600060608201905061260960008301866122db565b61261660208301856122db565b61262360408301846125bb565b949350505050565b600060a08201905061264060008301886122db565b61264d60208301876122db565b61265a60408301866125bb565b61266760608301856125bb565b6126746080830184612357565b9695505050505050565b6000602082019050818103600083015261269881846122ea565b905092915050565b600060208201905081810360008301526126b981612366565b9050919050565b600060208201905081810360008301526126d981612389565b9050919050565b600060208201905081810360008301526126f9816123ac565b9050919050565b60006020820190508181036000830152612719816123cf565b9050919050565b60006020820190508181036000830152612739816123f2565b9050919050565b6000602082019050818103600083015261275981612415565b9050919050565b6000602082019050818103600083015261277981612438565b9050919050565b600060208201905081810360008301526127998161245b565b9050919050565b600060208201905081810360008301526127b98161247e565b9050919050565b600060208201905081810360008301526127d9816124a1565b9050919050565b600060208201905081810360008301526127f9816124c4565b9050919050565b60006020820190508181036000830152612819816124e7565b9050919050565b600060208201905061283560008301846125bb565b92915050565b600060208201905061285060008301846125ca565b92915050565b6000819050602082019050919050565b600081519050919050565b6000602082019050919050565b600082825260208201905092915050565b600082825260208201905092915050565b60006128ab82612a27565b91506128b683612a27565b9250827fffffffffffffffffffffffffffffffffffffffffffffffffffffffffffffffff038211156128eb576128ea612a87565b5b828201905092915050565b600061290182612a27565b915061290c83612a27565b92508261291c5761291b612ab6565b5b828204905092915050565b600061293282612a27565b915061293d83612a27565b9250817fffffffffffffffffffffffffffffffffffffffffffffffffffffffffffffffff048311821515161561297657612975612a87565b5b828202905092915050565b600061298c82612a27565b915061299783612a27565b9250828210156129aa576129a9612a87565b5b828203905092915050565b60006129c082612a31565b91506129cb83612a31565b9250828210156129de576129dd612a87565b5b828203905092915050565b60006129f482612a07565b9050919050565b60008115159050919050565b600073ffffffffffffffffffffffffffffffffffffffff82169050919050565b6000819050919050565b600060ff82169050919050565b6000612a4982612a27565b91507fffffffffffffffffffffffffffffffffffffffffffffffffffffffffffffffff821415612a7c57612a7b612a87565b5b600182019050919050565b7f4e487b7100000000000000000000000000000000000000000000000000000000600052601160045260246000fd5b7f4e487b7100000000000000000000000000000000000000000000000000000000600052601260045260246000fd5b7f5a65726f20416464726573732063616e277420626520746865206f776e65722060008201527f6164647265737300000000000000000000000000000000000000000000000000602082015250565b7f4f776e61626c653a206e6577206f776e657220697320746865207a65726f206160008201527f6464726573730000000000000000000000000000000000000000000000000000602082015250565b7f42616c616e6365206f66206275796572206973206c657373207468616e20707260008201527f6963650000000000000000000000000000000000000000000000000000000000602082015250565b7f54686973206163636f756e74206973206e6f742073656c6c6572206f66206d6160008201527f726b6574206974656d2100000000000000000000000000000000000000000000602082015250565b7f4974656d2049642063616e2774206e6f74206265207a65726f21000000000000600082015250565b7f50726963652063616e2774206265207a65726f00000000000000000000000000600082015250565b7f54686973204974656d206973206e6f7420736f6c642079657400000000000000600082015250565b7f4f776e61626c653a2063616c6c6572206973206e6f7420746865206f776e6572600082015250565b7f50657263656e74206f6620466565206d757374206265206c657373207468616e60008201527f20333025206f722063616e2774206265207a65726f0000000000000000000000602082015250565b7f54686973204e4654206973206e6f742061737369676e65642077697468204d6160008201527f726b657400000000000000000000000000000000000000000000000000000000602082015250565b7f54686973206974656d2077617320736f6c6420616c7265616479210000000000600082015250565b7f5265656e7472616e637947756172643a207265656e7472616e742063616c6c00600082015250565b612dbe816129e9565b8114612dc957600080fd5b50565b612dd5816129fb565b8114612de057600080fd5b50565b612dec81612a27565b8114612df757600080fd5b50565b612e0381612a31565b8114612e0e57600080fd5b5056fea2646970667358221220d4e7f9e16b377ac9a8f23440d86fa8323a810c299524d23d6b7066ef657b313e64736f6c63430008040033",
  "immutableReferences": {},
  "source": "// SPDX-License-Identifier: MIT\r\npragma solidity ^0.8.4;\r\nimport \"@openzeppelin/contracts/utils/Counters.sol\";\r\nimport \"@openzeppelin/contracts/token/ERC721/ERC721.sol\";\r\nimport \"@openzeppelin/contracts/security/ReentrancyGuard.sol\";\r\nimport \"@openzeppelin/contracts/access/Ownable.sol\";\r\nimport \"./interfaces/IMilkToken.sol\";\r\n\r\ncontract Market is ReentrancyGuard, Ownable {\r\n    using Counters for Counters.Counter;\r\n    Counters.Counter private _itemIds;\r\n    Counters.Counter private _itemSold;\r\n\r\n    IMilkToken tokenMilk;\r\n\r\n    address private ownerAddr;\r\n\r\n    struct MarketItem {\r\n        uint256 itemId;\r\n        address nftContract;\r\n        uint256 tokenId;\r\n        address seller;\r\n        address buyer;\r\n        uint256 price;\r\n        uint256 listedTime;\r\n        bool isSold;\r\n    }\r\n\r\n    uint8 public feePercent;\r\n\r\n    mapping(uint256 => MarketItem) private idToMarketItem;\r\n\r\n    event MarketItemCreated(\r\n        uint256 indexed itemId,\r\n        address indexed nftContract,\r\n        uint256 indexed tokenId,\r\n        address seller,\r\n        address owner,\r\n        uint256 price,\r\n        uint256 listedTime,\r\n        bool isSold\r\n    );\r\n\r\n    constructor(IMilkToken _tokenMilk, address _ownerAddr) {\r\n        tokenMilk = _tokenMilk;\r\n        feePercent = 10;\r\n        ownerAddr = _ownerAddr;\r\n    }\r\n\r\n    function setFeePercent(uint8 _feePercent) public onlyOwner {\r\n        require(\r\n            _feePercent <= 30 && _feePercent > 0,\r\n            \"Percent of Fee must be less than 30% or can't be zero\"\r\n        );\r\n        feePercent = _feePercent;\r\n    }\r\n\r\n    function setOwnerAddr(address _ownerAddr) public onlyOwner {\r\n        require(\r\n            _ownerAddr != address(0),\r\n            \"Zero Address can't be the owner address\"\r\n        );\r\n        ownerAddr = _ownerAddr;\r\n    }\r\n\r\n    function getOwnerAddr() public view onlyOwner returns (address) {\r\n        return ownerAddr;\r\n    }\r\n\r\n    function createMarketItem(\r\n        address nftContract,\r\n        uint256 tokenId,\r\n        uint256 price\r\n    ) public nonReentrant {\r\n        require(price > 0, \"Price can't be zero\");\r\n\r\n        _itemIds.increment();\r\n        uint256 itemId = _itemIds.current();\r\n\r\n        idToMarketItem[itemId] = MarketItem(\r\n            itemId,\r\n            nftContract,\r\n            tokenId,\r\n            msg.sender,\r\n            address(0),\r\n            price,\r\n            block.timestamp,\r\n            false\r\n        );\r\n\r\n        IERC721(nftContract).transferFrom(msg.sender, address(this), tokenId);\r\n\r\n        emit MarketItemCreated(\r\n            itemId,\r\n            nftContract,\r\n            tokenId,\r\n            msg.sender,\r\n            address(0),\r\n            price,\r\n            block.timestamp,\r\n            false\r\n        );\r\n    }\r\n\r\n    function unlistMarketItem(address nftContract, uint256 itemId)\r\n        public\r\n        nonReentrant\r\n    {\r\n        uint256 tokenId = idToMarketItem[itemId].tokenId;\r\n\r\n        require(itemId != 0, \"Item Id can't not be zero!\");\r\n\r\n        require(\r\n            msg.sender == idToMarketItem[itemId].seller,\r\n            \"This account is not seller of market item!\"\r\n        );\r\n\r\n        require(\r\n            nftContract == idToMarketItem[itemId].nftContract,\r\n            \"This NFT is not assigned with Market\"\r\n        );\r\n\r\n        require(\r\n            idToMarketItem[itemId].isSold != true &&\r\n                idToMarketItem[itemId].buyer == address(0),\r\n            \"This item was sold already!\"\r\n        );\r\n\r\n        IERC721(nftContract).transferFrom(address(this), msg.sender, tokenId);\r\n        idToMarketItem[itemId].buyer = msg.sender;\r\n        idToMarketItem[itemId].isSold = true;\r\n        _itemSold.increment();\r\n    }\r\n\r\n    function createMarketSale(address nftContract, uint256 itemId)\r\n        public\r\n        nonReentrant\r\n    {\r\n        uint256 price = idToMarketItem[itemId].price;\r\n        uint256 tokenId = idToMarketItem[itemId].tokenId;\r\n\r\n        require(\r\n            tokenMilk.balanceOf(msg.sender) >= price,\r\n            \"Balance of buyer is less than price\"\r\n        );\r\n\r\n        tokenMilk.transferFrom(\r\n            msg.sender,\r\n            idToMarketItem[itemId].seller,\r\n            (price * 10**18 * (100 - feePercent)) / 100\r\n        );\r\n\r\n        tokenMilk.transferFrom(\r\n            msg.sender,\r\n            ownerAddr,\r\n            (price * 10**18 * feePercent) / 100\r\n        );\r\n\r\n        IERC721(nftContract).transferFrom(address(this), msg.sender, tokenId);\r\n        idToMarketItem[itemId].buyer = msg.sender;\r\n        idToMarketItem[itemId].isSold = true;\r\n        _itemSold.increment();\r\n    }\r\n\r\n    function fetchMarketItems() public view returns (MarketItem[] memory) {\r\n        uint256 itemCount = _itemIds.current();\r\n        uint256 unsoldItemCount = _itemIds.current() - _itemSold.current();\r\n        uint256 currentIndex = 0;\r\n\r\n        MarketItem[] memory items = new MarketItem[](unsoldItemCount);\r\n\r\n        for (uint256 i = 0; i < itemCount; i++) {\r\n            if (idToMarketItem[i + 1].buyer == address(0)) {\r\n                uint256 currentId = i + 1;\r\n                MarketItem storage currentItem = idToMarketItem[currentId];\r\n                items[currentIndex] = currentItem;\r\n                currentIndex++;\r\n            }\r\n        }\r\n\r\n        return items;\r\n    }\r\n\r\n    function fetchMyNFTs() public view returns (MarketItem[] memory) {\r\n        uint256 totalItemCount = _itemIds.current();\r\n        uint256 itemCount = 0;\r\n        uint256 currentIndex = 0;\r\n\r\n        for (uint256 i = 0; i < totalItemCount; i++) {\r\n            if (idToMarketItem[i + 1].buyer == msg.sender) {\r\n                itemCount += 1;\r\n            }\r\n        }\r\n\r\n        MarketItem[] memory items = new MarketItem[](itemCount);\r\n\r\n        for (uint256 i = 0; i < totalItemCount; i++) {\r\n            if (idToMarketItem[i + 1].buyer == msg.sender) {\r\n                uint256 currentId = i + 1;\r\n                MarketItem storage currentItem = idToMarketItem[currentId];\r\n                items[currentIndex] = currentItem;\r\n                currentIndex += 1;\r\n            }\r\n        }\r\n\r\n        return items;\r\n    }\r\n\r\n    function fetchItemsCreated() public view returns (MarketItem[] memory) {\r\n        uint256 totalItemCount = _itemIds.current();\r\n        uint256 itemCount = 0;\r\n        uint256 currentIndex = 0;\r\n\r\n        for (uint256 i = 0; i < totalItemCount; i++) {\r\n            if (idToMarketItem[i + 1].seller == msg.sender) {\r\n                itemCount += 1;\r\n            }\r\n        }\r\n\r\n        MarketItem[] memory items = new MarketItem[](itemCount);\r\n\r\n        for (uint256 i = 0; i < totalItemCount; i++) {\r\n            if (idToMarketItem[i + 1].seller == msg.sender) {\r\n                uint256 currentId = i + 1;\r\n                MarketItem storage currentItem = idToMarketItem[currentId];\r\n                items[currentIndex] = currentItem;\r\n                currentIndex += 1;\r\n            }\r\n        }\r\n\r\n        return items;\r\n    }\r\n\r\n    function fetchSellerOfMarketItem(uint256 _marketId)\r\n        public\r\n        view\r\n        returns (address)\r\n    {\r\n        return idToMarketItem[_marketId].seller;\r\n    }\r\n\r\n    function fetchPriceOfMarketItem(uint256 _marketId)\r\n        public\r\n        view\r\n        returns (uint256)\r\n    {\r\n        return idToMarketItem[_marketId].price;\r\n    }\r\n\r\n    function fetchBuyerOfMarketItem(uint256 _marketId)\r\n        public\r\n        view\r\n        returns (address)\r\n    {\r\n        require(idToMarketItem[_marketId].isSold, \"This Item is not sold yet\");\r\n\r\n        return idToMarketItem[_marketId].buyer;\r\n    }\r\n}\r\n",
  "sourcePath": "C:\\Users\\admin\\Documents\\nft-contracts\\contracts\\Market.sol",
  "compiler": {
    "name": "solc",
    "version": "0.8.4+commit.c7e474f2.Emscripten.clang"
  },
  "schemaVersion": "3.4.3",
  "updatedAt": "2021-12-13T20:18:12.878Z",
  "networkType": "ethereum",
  "devdoc": {
    "kind": "dev",
    "methods": {
      "owner()": {
        "details": "Returns the address of the current owner."
      },
      "renounceOwnership()": {
        "details": "Leaves the contract without owner. It will not be possible to call `onlyOwner` functions anymore. Can only be called by the current owner. NOTE: Renouncing ownership will leave the contract without an owner, thereby removing any functionality that is only available to the owner."
      },
      "transferOwnership(address)": {
        "details": "Transfers ownership of the contract to a new account (`newOwner`). Can only be called by the current owner."
      }
    },
    "version": 1
  },
  "userdoc": {
    "kind": "user",
    "methods": {},
    "version": 1
  }
}